:020000040000FA
:20000000005000202110000019100000FD0F00001D1000001D1000001D1000000000000083
:200020000000000000000000000000001D1000001D100000000000001D1000001D1000000C
:20004000793000001D100000AD3900001D100000392800005D2D00001D1000001D10000072
:200060001D100000013A00001D1000001D1000001D1000001D1000001D1000001D1000000A
:200080001D1000001D1000001D1000001D1000001D1000001D1000001D1000001D100000F8
:2000A0001D1000001D1000001D1000001D1000001D1000001D1000001D1000001D100000D8
:2000C0001D10000071480000294B1B689B0702D44FF000407047F0B5452183B0002002F045
:2000E0001DFA022201200DF1060101F0B9F838B901A8022101F0D6F84FF0004003B0F0BDA2
:20010000022200200DF1060101F0AAF80028EFD0BDF806305BBAC3F303309CB2ADF804300C
:200120000FF02EF80EF0C0FC0646C4F30B000F460FF036F80CA3D3E9002304460D463046AF
:2001400039460FF097F802460B46204629460FF091F80FF03FFB07490EF01CFE0FF098FC68
:2001600003B0F0BDAFF300807B14AE47E17A843F900800200000C84208B51F4B1A68032AC3
:2001800033D1421E012A03462FD81C491C4A012B0988108811D00EF0F3FF0022194B0FF00A
:2001A00069F80022184B0FF065F80FF013FB17490EF0F0FD0FF06CFC08BD08460EF0E0FF4E
:2001C0000022104B0FF056F809A3D3E900230FF051F800220E4B0EF095FE0FF0FBFA0B492E
:2001E0000EF0D8FD0FF054FC08BD4FF0004008BD0000000000A0644098080020B42E0020CE
:20020000B22E00200000F03E000059400000C84200004440000000002DE9F041704B1B6804
:2002200053B30646062200216E480FF007FF16F038085AD172071FD002F07AFA6A4C6B4DBB
:200240002746286006E002F073FA2B68C31A0A2B40F18D806821012002F060F901223946EA
:200260003A2000F0FDFF0021084602F057F92378002BE8D0DB0704D44FF000484046BDE89D
:20028000F081584C6821012002F048F906222146432000F0E5FF054600286CD02346A01DD1
:2002A00019785A7859701A7002338342F8D10021084602F033F9042E6AD0022E70D0012E2D
:2002C000DCD1B4F904000EF06BFF43A3D3E900230FF0FAF80FF07EFA45490EF05BFD0FF048
:2002E000D7FB80464046BDE8F08102F021FA3E4C3E4D2746286005E002F01AFA2B68C31A58
:200300000A2B48D56821012002F008F9012239463A2000F0A5FF0021084602F0FFF823786B
:20032000002BE9D0D907A7D52E4C6821012002F0F5F8214606223B2000F092FF00210546A3
:20034000084602F0EBF8002D3DD02346A01D19785A7859701A7002339842F8D1202E22D04C
:20036000102E2DD0082E33D04FF0000886E72378DB0781D585E74FF000482046062100F012
:2003800091FF2846294602F0C9F84046BDE8F081B4F9000097E72378D9077FF56DAFC3E7C1
:2003A000B4F902008FE7B4F9000001F0CBFA10490EF0F0FC0FF06CFB80464046BDE8F081AA
:2003C000B4F90200F1E70621204600F06BFF53E7B4F90400E9E700BF000000000060604035
:2003E000E8080020C0080020CB2E0020EC0800200000C842000000002DE9F04F23F0004B1B
:2004000080465BEA020014461D460E4693B016D143467D49DB1886F400225241984271EBED
:20042000020324D2404622462B4631460EF06CFDCDE90001DDE9000113B0BDE8F08F1146C8
:20044000724A26F0004991459A463746434617DD07F1404707F580171F43E3D122196A49BB
:2004600085F400235B41974271EB0303DAD30023674CCDE90034DDE9000113B0BDE8F08FEE
:2004800040D0624A9345E3DC00F09380002F73DB0022029279B95D4A934500F08E805C4A7E
:2004A000934500F0A280BAF1804F00F0A084594A924500F0C6834046314604930EF060FC23
:2004C000049BCDE900015BB3029AFB0F013B0A93134300F09380504B9B4540F3A38003F11B
:2004E00004739B454D4B40F31B84994540F39184BAF1000F40F39184002013B0BDE8F04F4C
:200500000EF038BC002B8DD1BBE74046314602930EF036FC029BCDE90001002B6ED10293A9
:20052000B9F1000F04D03A4B27F040429A42CBD1BAF1000F07DADDE90023002034490EF079
:20054000C3FFCDE90001002FBFF674AF029B09F1404909F5801959EA030340F06E84DDE933
:200560000023104619460EF0CDFC02460B460EF0ABFFCDE900015DE7294A93452FDCA2F1B7
:20058000547293450FDD4FEA2B52A2F2FF32142A40F34584C2F1340221FA02F000FA02F238
:2005A0008A4200F077840022029200293FF477AF81E700293FF46AAF4AE709F1404202F5CB
:2005C000801213433FF453AF144B994540F36D83BAF1000FC0F26383CDE900452AE702221C
:2005E000029200293FF457AF65E7BAF1000FC0F2F48340463146CDE900011BE74246404612
:2006000033463146AFE700BF0000F0FF0000F07F0000F03F0000E03F0000E041FFFFEF3F9C
:20062000FFFF3F43D44B3B40002B40F04783DDE900010022D14B0EF01DFE6FF034028946F9
:20064000CDE900014FEA2953A3F2FF339A18CC4BC9F3130949F07F5699450B9246F44016AD
:2006600007DDC84B994540F3F58301320B92A6F580160022002300200027C349CDE9082380
:20068000CDE90601CDE91023DDE90001DDE90623314682460EF036FCDDE90623B3468046E1
:2006A000894650463146CDE90CAB0EF02DFC02460B460020B4490EF007FF8C4683466346CC
:2006C0005A4640464946CDE90EBC0EF0D3FD82468B46731043F0005303F50023D9190F4613
:2006E0005A46514600230020CDE900120093064602463B46CDE904ABDDE900AB5046594605
:200700000EF0B8FD02460B46404649460EF0FAFBDDE9062380468946304639460EF0F2FB21
:2007200002460B46DDE90C010EF0ECFB52465B460EF0A0FD02460B46404649460EF0E2FB0B
:20074000DDE90E230EF096FDDDE90467CDE9060132463B46304639460EF08CFD74A3D3E9DB
:20076000002306460F460EF085FD73A3D3E900230EF0CAFB32463B460EF07CFD70A3D3E93E
:2007800000230EF0C1FB32463B460EF073FD6EA3D3E900230EF0B8FB32463B460EF06AFD16
:2007A0006BA3D3E900230EF0AFFB32463B460EF061FD69A3D3E900230EF0A6FB3246804687
:2007C00089463B46304639460EF054FD02460B46404649460EF04EFD06460F46DDE9040122
:2007E00052465B460EF090FBDDE906230EF042FD32463B460EF088FB5246804689465B46C3
:20080000504659460EF036FD02460B46CDE90C2300225E4B0EF078FB42464B460EF074FB32
:2008200000260F4632463B46504659460EF022FD002282468B4630463946544B0EF062FB48
:20084000DDE90C230EF05EFB02460B46404649460EF058FBDDE904230EF00CFD324680461B
:200860008946DDE906013B460EF004FD02460B46404649460EF048FB80468946002642462A
:200880004B46504659460EF03FFB35A3D3E9002330460F460EF0EEFC52465B4682468B461E
:2008A000304639460EF02EFB02460B46404649460EF028FB2CA3D3E900230EF0DBFC024682
:2008C0000B463046394616461F4629A3D3E900230EF0D0FC02460B46304639460EF014FB01
:2008E000DDE910230EF010FB06460B980F460EF057FC8046894632463B4650465946CDE9E8
:2009000004AB0EF001FBDDE908230EF0FDFA4FF0000A42464B460EF0F7FA42464B46504648
:200920008B460EF0EFFADDE908230EF0EBFA2FE0EF4E454A287ECA3F65DBC9934A86CD3F29
:2009400001411DA96074D13F4D268F515555D53FFFAB6FDBB66DDB3F033333333333E33F45
:20096000000000E009C7EE3FFD033ADC09C7EE3FF5015B14E02F3EBE0000F07F0000404325
:200980008E98030079B60B000000F03F00000840DDE904230EF0B6FA02460B463046394654
:2009A0000EF0B0FA029B0A9A013B13434FF000020CBFD54BD54BCDE90045CDE90223002377
:2009C0000093DDE90089CDE9040142464B46204629460EF097FA52465B460EF04BFC224617
:2009E00006460F46DDE904012B460EF043FC02460B46304639460EF087FA42464B4606466B
:200A00000F46504659460EF035FC04460D4630462B46394622460EF077FABD4B804699429A
:200A200089468A4640F3178101F13F4303F5E003034340F02482A2A3D3E9002330463946C8
:200A40000EF062FA02460B46404649469046994622462B460EF056FA02460B464046494604
:200A60000EF098FE002840F00A82CAF30A534FF480120020A3F2FE3342FA03F35344A54972
:200A8000C3F30A52A2F2FF3241FA02FCC3F3130B23EA0C01C2F114024BF4801BBAF1000FFB
:200AA0000B464BFA02FB294602462046B8BFCBF1000B0EF027FA04460D463046394622462F
:200AC0002B460EF021FA89464FEA0B5A4FF000087DA3D3E90023404649460EF0CBFB224698
:200AE0002B4604460D46404649460EF00BFA02460B46304639460EF005FA75A3D3E900234E
:200B00000EF0B8FB74A3D3E9002306460F46404649460EF0AFFB02460B46304639460EF044
:200B2000F3F98046894642464B46204629460EF0EBF922462B4606460F460EF0E3F90246C8
:200B40000B46404649460EF0DDF93246804689463B46304639460EF08DFB61A3D3E900236F
:200B600004460D460EF086FB5FA3D3E900230EF0C9F922462B460EF07DFB5DA3D3E900238A
:200B80000EF0C2F922462B460EF074FB5AA3D3E900230EF0B7F922462B460EF06BFB58A394
:200BA000D3E900230EF0B0F922462B460EF062FB02460B46304639460EF0A4F904460D46B5
:200BC00022462B46304639460EF054FB02460B462046294614461D4600224FF080430EF0AD
:200BE00091F902460B46204629460EF06DFC424604460D464B46304639460EF03BFB42462F
:200C00004B460EF081F902460B46204629460EF079F932463B460EF075F902460B460020CF
:200C20003A490EF06FF98A44BAF5801FC0F223815146DDE902230EF01DFBCDE90001FFF714
:200C4000F9BB002FFFF637AC4046314613B0BDE8F04F0DF09FBFDFF8C0C021F00043634587
:200C600040F3CF802D4B0B4403430AD122462B460EF048F932463B460EF082FD00283FF421
:200C8000F4AEDDE90201002200230EF065FD003818BF012013B0BDE8F04F0EF065B800232F
:200CA0000024CDE90034FFF7C5BBBAF1000FF6DA05F1004300940193FFF7BCBB0022C1E491
:200CC000FE822B654715973C00000000432EE63FEF39FAFE422EE63F396CA80C615C20BE96
:200CE000D0A4BE726937663EF16BD2C541BDBB3E2CDE25AF6A56113F93BDBE166CC1663F3E
:200D00003E5555555555C53F0000F0BF0000F03FFFFF8F40FFFF0F00FFCB904000346F3FB4
:200D2000994576DB724B99453FF7E2ABDDE9000100226F4B0EF0E6F861A3D3E90023064678
:200D40000F460EF097FA60A3D3E9002382468B46304639460EF08EFA0022CDE90001654B30
:200D6000304639460EF086FA02460B4658A1D1E900010EF0C7F832463B460EF07BFA024642
:200D80000B4600205C490EF0BDF832463B4680468946304639460EF06DFA02460B46404683
:200DA00049460EF067FA4CA3D3E900230EF062FA02460B46DDE900010EF0A4F806460F4682
:200DC0005046594632463B460EF09EF852464FF0000A5B4650468B46DCE542460020334686
:200DE00043490EF071FBCDE90001FFF723BB42464046334631460EF03DFACDE90001FFF792
:200E000019BB3D4A934256DCDDE90023924693465CE6BAF1000FFFF66FAB00203AE7002961
:200E20007FF473ABC2F114024BFA02F000FA02F25A4539D00291FFF732BB029B012B7FF4D9
:200E4000F9AADDE90045224605F10043CDE90023FFF7F0BA0022294B4FF48027CDE906236B
:200E60001FA3D3E90023CDE908231FA3D3E90023CDE9102308E45A4600F042F8D9E60022CF
:200E8000DDE9020100230EF067FC003818BF0120FFF733BB00F00100C0F10202029200298E
:200EA0003FF4FDAAFFF707BB00F00100C0F102020292FFF7F4BA1B15D9E500BFAFF30080F3
:200EC000000000604715F73F44DF5DF80BAE543E555555555555D53FFE822B654715F73FA9
:200EE0000000004003B8E23F06D0CF43EBFD4C3E0000F03F0000D03F0000E03F0000F83FE8
:200F0000C1F30A5370B58C4604460D4616467BBB034621F0004C5CEA030328D0324B002211
:200F20000EF0A8F9314B04469E420D461ADB8C46C1F30A53363B40F2FE723344934220DCE6
:200F4000002B3EDC13F1350F2CDA4CF250339E4217DC05F0004343F0D27141F4B731244833
:200F600041F01F011CA3D3E900230EF083F970BD40F2FF7E7345DED102460B460DF0C4FF6C
:200F800070BD05F0004343F0FC4141F45F1141F4105113A3D3E90023164841F03C010EF0E2
:200FA00069F970BD2CF0FF4C03F136012CF4E00C4CEA01550022204629460F4B0EF05AF9D6
:200FC00070BD2CF0FF4C2CF4E00C20464CEA035170BD00BFAFF3008059F3F8C21F6EA5013A
:200FE0009C7500883CE4377E00005043B03CFFFF59F3F8C29C7500880000903C4FF0E02359
:20100000D3F8282DB2F5806F04D0D3F8283D9B0500D4FEE7704700BFFEE700BFFEE700BFFF
:2010200008B506F0C5FC104A10498A420DD2104801390346891A21F003010431014453F886
:20104000040B8B4242F8040BF9D10A480A494FF000028842B8BF40F8042BFADB03F0CEFD80
:20106000FFF7CCFF08BD00BF00000020A50700203C070100A8070020F02E0020F0B5002722
:2010800006463C463D4683B0304604F023FF0195019B9C4206DD00BF019B01330193019B8E
:2010A000A342F8DB304604F043FF0195019BC4F5C8749C4206DD00BF019B01330193019B25
:2010C000A342F8DB0137B7F5487F06D0B7F5C87FD4BF3C46C7F54874D6E703B0F0BD00BF7B
:2010E00070B54FF08054194DD4F8D831284601215B6898470122D4F8D83111461B6828460B
:20110000984706F0FFFC02F00FF801F08FFF00F001FE04F06BFF04F039FF0120FFF7AEFF4A
:2011200001230B4ED4F8B01105F5B825F360094AAB600B691020D26A984706F0E7FC01F094
:20114000F9FABDE870400020FFF798BF00400340004009400020094008B541F2342003F02E
:20116000ABFA01F0ADFD04F01BFE0548082101F07BFC04F067FDBDE808400220FFF77EBFAA
:201180000C17002008210023F0B585B00DEB0100CDE9003301F068FCBDF80E40254D64BA1C
:2011A000EE6A4AF6CD31A4B20220B04721460320B0471A210120B04708226B6B0DEB02015B
:2011C0000B201D4F984701206946AC6AA0473B68022B1ADC022001A9A04778B93B68022B52
:2011E00008DC0021154804F035F90020FFF746FF05B0F0BD0199124807F03EFC3B68022BB9
:20120000EFDD104807F038FCEBE70F4A0F49104807F032FC0F4807F02FFC3B68022BD9DD80
:201220000A49094A0A4807F027FC00990A4807F023FCCFE7FC010100F40500202806002080
:201240003001010004070100E0000100F0000100F8000100080101002001010001F0ACBDFF
:2012600000B58E46844683B01346012172460DF107008DF807C001F041F803B05DF804FB33
:20128000074B18703AB101EB020C11F8010B614503F8010FF9D101320148D1B200F06ABEE8
:2012A000D807002029B1CC23014401F8013D8142FBD17047813801289ABF024B186800207C
:2012C000704700BF140800200322024B02481A6004F0F8BA1408002070010100594B1B68AB
:2012E000032B40F0AB80431E012B2DE9F041044600F2A180544D0622002128460EF09EFE42
:201300007721002001F00AF906222946F720FFF7A7FF002800F087802A79EB784B4895F892
:2013200000E095F801C0A97812016D7942EA033242EA15160588B0F90A70C5EB121202FB2C
:2013400002F3B0F904201B1302FB03F36D00B0F90220C5EBD60502FB05F59B1303EBE5234C
:201360005E10A6F57A46B51005FB05F5B0F908204FEA653806FB02F208FB07F7521002EBF9
:20138000E7029214C78802F5004207FB02F2D213836146D0090941EA0C1CB0F90E10ED1236
:2013A00001FB06F6B0F91010760001FB0565B0F90C602749360406EBA5054CEA0E3E0EEBBB
:2013C000253E01FB0EFE0EF1434E0EF5A00EBEF1000FB3BFBEFBF2FE4FEA4E0EBEFBF2FE4A
:2013E0004FEA4E0E4FEADE0202FB02F2B0F91610B0F91450520B01FB02F2B0F912104FEA21
:201400009E0005FB00F0401300EB223008440EEB2010012C03D103EB830080300012BDE860
:20142000F0811046F5E728460621FFF73BFF4FF00040BDE8F0814FF00040F0E74FF00040DA
:20144000704700BF1408002018080020F8070020CBF3FFFF30B5802883B005D0812828D089
:201460002D4B186803B030BD01242B4D772100202C6001F053F81C2228498820FFF7F0FE7C
:20148000B62322460DF10701E0208DF80730FFF7F7FE7721002001F041F8002322460DF1F3
:2014A0000701F4208DF80730FFF7EAFE286803B030BD194D28680028D4D00C46B9B1772130
:2014C000002001F02BF825230DF107010122F4208DF80730FFF7D4FE00230321104A1148D5
:2014E00003F064FE022318462B6003B030BD0D4803F0A4FE2046772101F010F801220DF1E7
:201500000701F4208DF80740FFF7BAFE012318462B6003B030BD00BF14080020F80700206E
:20152000C912000020080020813801289ABF024B18680020704700BF480800200322024B08
:2015400002481A6004F0BEB94808002088010100314B1B68032B5CD1820770B5044626D01A
:20156000032809D0012804D0022820D12B4B186870BD2B4B186870BD2A4D4421002000F01D
:20158000CDFF022229460420FFF76AFE58B12B885BBA2B805B0406D5234D02222946012090
:2015A000FFF75EFE30B904211F48FFF77BFE4FF0004070BD02222046A918FFF751FE002891
:2015C000F1D02888164E40BAC0F38D000EF00CFA4FF074510DF0DEFB044668880F4D40BA8E
:2015E000C0F38D000EF000FA4FF074510DF0D2FB0E490DF0CFFB0EF04BFA03460B49204681
:2016000033600DF0C7FB0EF043FA03462B60012070BD4FF00040704748080020400800200D
:201620004C080020B02E00204408002000007A44802838B504D0812827D02A4B186838BD1B
:201640004FF08054D4F8B43101209B6B9847D4F8B4314FF4804101209B699847D4F8B43156
:201660004FF08041DB69012098474421002000F055FF022200231C4910460B80FFF700FEDC
:201680000123184A1846136038BD164D28680028D5D00C46A1B14421002000F03FFF0222C3
:2016A0001023114910460B80FFF7EAFD002324210E4A0F4803F07AFD022318462B6038BD5B
:2016C0000B4803F0BBFD2046442100F027FF0222054910460C80FFF7D3FD012318462B6004
:2016E00038BD00BF48080020B02E00203D15000050080020014B1868704700BF9008002004
:2017000000B5452183B0002000F008FF022201200DF10601FFF7A4FDBDF90630002B08DB89
:2017200000231021074A084803F040FD03B05DF804FB064804F0C6F80222054B1A6003B0DC
:201740005DF804FB0117000070080020A00101009008002070B5802882B01DD081282ED197
:201760000C4679B301244521002000F0D7FE41F2C20321480DF10601046002222046ADF882
:201780000630FFF77DFD002310211C4A1C4803F00DFD204602B070BD174D45212B680020C6
:2017A00003F0020400F0BAFE4FF48653022201200DF106012C60ADF80630FFF761FD002047
:2017C00002B070BD0C4E0E4803F038FD33682046452103F0020500F0A1FE4FF48653022222
:2017E0000DF1060101203560ADF80630FFF748FD204602B070BD00BF900800200117000044
:2018000070080020813801289ABF024B18680020704700BF98080020032138B5114C124A08
:201820002378116033B9012310482370BDE8384004F048B80E4D4321002000F06FFE04212F
:20184000284600F0B5FC00212070084600F066FE2A886B880748084952BA5BBA02800B80B3
:20186000E1E700BFC82E002098080020B801010094080020B42E0020B22E002030B5802806
:2018800083B005D0812827D0274B186803B030BD0024264B264D0422214626481C802C80C3
:2018A0000EF0CCFB2046432100F038FE022210230DF106011046ADF80630FFF7E1FC0246CB
:2018C0001D4B204621461A7000F028FE01231846154A136003B030BD134C20680028D5D08B
:2018E00069B1154D2B7893B900230321134A144803F05CFC02231846236003B030BD104834
:2019000003F09CFC01231846236003B030BD4321002000F003FE002000F000FC002128705D
:20192000084600F0FBFDDFE798080020B22E0020B42E002094080020C82E002019180000E6
:201940009C08002008B5174B1B78032B28D8DFE803F0151E0C020DF023FC00224FF07D539B
:201960000DF088FC0DF036FF08BD0DF019FC00220D4B0DF07FFC0DF02DFF08BD0DF010FCF4
:2019800000220A4B0DF076FC0DF024FF08BD0DF007FC0022064B0DF06DFC0DF01BFF08BDC7
:2019A000002008BDC92E00200000303F0000103F0000203F813801289ABF024B18680020E6
:2019C000704700BFE80800200222024B02481A6003F078BFE8080020D001010010B56821F2
:2019E000012000F09BFD3F23094C012221466C202370FFF745FC4F23214601226B2023708D
:201A0000FFF73EFCBDE810400021084600F086BDCD2E00208028F8B50CD0812807D111F031
:201A20003F0135D12F4BD3F88030DB0443D42E4B1868F8BD4FF08054D4F8B43107209B6BD6
:201A40009847D4F8B4314FF4005107209B699847D4F8B4314FF080410720DB699847D4F891
:201A6000B4310C20DB6B9847D4F8B4314FF440724FF480610C209B6A98474FF4805400221D
:201A800018481A4B1849C0F8A0401A600868F8BD4FF480570124154B124E134D1960144AB3
:201AA000C6F890700023082112482C6003F07EFB20462C60F8BD0D4B0E48196003F0BEFB50
:201AC000FFF78CFF0C4AD2F8043813F00103FAD14FF48050044A03491360C1F8A000106866
:201AE000F8BD00BF00200240E8080020BC080020FD1A0000C8080020002000402DE9F0416E
:201B0000364C236813F0380F28D1354D03F03F042E785EB9002C3BD1FFF760FFBDE8F0419D
:201B2000002305212F4A304803F040BBE3B22B70002CF1D02D4FDB43682101203B7000F081
:201B4000EDFC012229496C20FFF79AFB0021084600F0E4FC264805F0DDFFDFE7254F3A7886
:201B6000002AD2D00025244E68210120357000F0D5FC314601221C20FFF782FB06462946EE
:201B8000284600F0CBFC2368002EBED03D70BCE76821012000F0C2FC0923144F0122394600
:201BA0006B203B70FFF76CFB3F23012239466C203B70FFF765FB01220F491C202E70FFF7B6
:201BC0005FFB012239463A20FFF74AFB3146304600F0A4FCE3B22B70ADE700BFBC08002090
:201BE000CC2E0020C9190000C8080020CD2E002080380100C92E0020CA2E00200022014B88
:201C00001A707047CE2E002070B500244FF08055174B18481C7001F003FA174AD5F8B811D7
:201C2000D368204623F00103D3600B6A9847D5F8B83120469B6A9847D5F8B83120461B6BC3
:201C4000984701210D4B0E4A9962936A9B07FCD54FF08054D4F8B43115209B6B9847D4F8BE
:201C6000B4310021BDE8704015201B6A184700BFCE2E0020400500200000014000200860E7
:201C80000020084010B54FF08054D4F8B83104205B699847D4F8B83104205B6B98470128E1
:201CA000F8D110BDFFF7EEBF032801D000F0FCB808B5FFF7A9FF114B00219B6881209847F0
:201CC0000F4B00219B68812098470E4B00219B68812098470C4B00219B68812098470B4BB8
:201CE00000219B68812098474FF48052084BC3F8A020BDE8084000F0D7B800BF70010100C0
:201D0000A001010088010100B8010100D00101000020024070B505F0F5FE0646FFF7B2FFA9
:201D20004FF08053D3F8B8314FF4A060DB6998470121414B414A9962936A9B07FCD54FF094
:201D400080544FF4005500F07FF8FFF757FF002005F058FB3A4801F05DF9D4F8B431192049
:201D60009B6B9847D4F8B431294619209B699847D4F8B43118209B6B9847D4F8B431294654
:201D800018209B699847D4F8B43117209B6B9847D4F8B431294617209B699847D4F8B43170
:201DA0001B209B6B9847D4F8B43129461B209B699847D4F8B4311E209B6B9847D4F8B43140
:201DC0004FF480411E209B699847D4F8B4310D20DB6B98471B4AD4F8B431C2F8A0500021FA
:201DE0004FF480720D209B6A9847D4F8B43102209B6B9847D4F8B431294602209B699847C0
:201E0000D4F8B4310B209B6B9847D4F8B43129460B209B699847D4F8B4311D209B6B984700
:201E2000D4F8B43129461D209B69984706B170BDBDE8704005F06ABE00200860002008401C
:201E4000540500200020024070B54FF08055D5F8B83102205B699847D5F8B83102205B6B55
:201E6000984701280446F7D1D5F8B8314FF44070DB699847084B094A9C62936A9B07FCD568
:201E8000BDE870404FF08053D3F8AC310122044904481B68184700BF0020086000200840E6
:201EA000006CDC0200200040FF214FF0805310B52B4A02201170D3F8B8315B6B98470128E7
:201EC0000AD1284B1B6EDA0706D500232649274AC1F80438C2F810344FF08053D3F8B831B3
:201EE0004FF440701B6A98470121214B1D4A9962936A9B07FCD54FF08054D4F8B43108203F
:201F00009B6B9847D4F8B4314FF4005108209B699847D4F8B43109209B6B9847D4F8B4311C
:201F20004FF4005109209B699847D4F8B43105209B6B9847D4F8B4314FF4804105209B6968
:201F40009847D4F8B43106209B6B9847D4F8B4314FF48041BDE8104006209B69184700BFF4
:201F6000A2070020002008400020004000000542002008602DE9F047664B674D1B7807466F
:201F80005B00C5F8003803780E46C5F8083800F0CFFB00F5CC541934D5F804385B0608D5C2
:201FA00000F0C6FB001B0028F6DB00242046BDE8F08703230220C5F8043805F0ABFD00F0E8
:201FC000B7FBDFF8548100F5CC541934D8F80438D80746D44FF08053D3F8AC314E485B6829
:201FE000984710F00C0F7DD1012E40F28F800028DBD10124A046484D06F1FF39631E3B4486
:2020000002E00134B4423ED213F8012F4C45C5F80828F6D20220C5F8048805F07BFD00F05A
:2020200087FB00F5CC5A0AF1190AD5F80438D90710D44FF08053D3F8AC3128465B6898474E
:2020400010F00C0F824612D10134B44218D20028D4D0AAE700F06CFBA0EB0A000028E4DB75
:20206000A3E700F065FB001B0028AFDB9DE704230220C5F80438013405F04CFDA64294D82C
:20208000BAF1000F91D10523234D0220C5F8043805F040FD00F04CFB00F5CC541934D5F8D9
:2020A0000438DA0725D44FF08053D3F8AC311A485B68984710F00C0F044620D100F038FBD3
:2020C000B4FA84F400F5CC55134E64091935D6F804385B067FF56AAF00F02AFB401B002818
:2020E000F5DB62E704230220C8F8043805F012FD5BE700F01DFB001B0028D0DB55E70423E3
:202100000220C5F8043805F005FDD7E700287FF44CAFB8E7CF2E00200020004070B5224BAB
:20212000224D1B785B00C5F80038C5F8080800F0FFFA00F5CC541934D5F804385A0606D5F1
:2021400000F0F6FA001B0028F6DB002070BD07230220C5F8043805F0DDFC00F0E9FA134EF7
:2021600000F5CC541934D6F80438DB070ED44FF08053D3F8AC310D485B68984710F00C0F63
:20218000044609D1B4FA84F0400970BD00F0D0FA001B0028E7DBD8E704230220C6F80438C2
:2021A00005F0B8FCEEE700BFCF2E0020002000402DE9F04F4F4BDFF840A11B7883B05B009D
:2021C00043F00103CAF800388846019000F0B0FA00F5CC541934DAF8045815F0400508D023
:2021E00000F0A6FA001B0028F5DB002003B0BDE8F08F0B230220CAF8043841F699164FF0D2
:2022000080573D4C08F1FF3B05F084FC5FFA85FADA452CDA00F08CFA00EB0609D4F8042851
:20222000D20716D4D7F8AC3120465B68984710F00C0F15D101350028D7D10923D4F80828F8
:202240000199022001F80A20C4F8043805F062FCDCE700F06DFAA0EB09000028DEDBC4E71A
:2022600004230220C4F8043805F054FCBDE70523214E0220C6F8043805F04CFC00F058FA02
:2022800000F5CC541934D6F8045815F0010521D14FF08053D3F8AC3117485B68984710F0FA
:2022A0000C0F1DD10028A0D1019AD6F80838424402F8013C00F03CFA0F4D00F5CC54193432
:2022C000D5F804385B0613D500F032FA031B002BF6DB8AE700F02CFA031B002BD3DB84E78D
:2022E00004230220C6F8043805F014FC28467DE701207BE7CF2E0020002000402DE9F84F67
:20230000DFF810A2844F9AF8004099466400C7F8004803780546C7F808380E46904600F066
:2023200007FA00F5CC541934D7F804385B0607D500F0FEF9001B0028F6DB0020BDE8F88FAB
:2023400003230220C7F8043805F0E4FB00F0F0F9714F00F5CC541934D7F80438D80740D46D
:202360004FF08053D3F8AC316B485B68984710F00C0F3CD1012E41D90028DED1013E01279F
:20238000DFF894B12E440DE04FF08053D3F8AC3158465B68984710F00C0F1BD1AE422DD0D4
:2023A0000028CAD115F8013F0220CBF80838CBF8047805F0AFFB00F0BBF900F5CC54193404
:2023C000DBF80438D907DFD500F0B2F9001B0028F6DBB2E704230220CBF8043805F09AFB40
:2023E000ABE700F0A5F9001B0028B5DBA5E704230220C7F8043805F08DFB9EE700289CD183
:202400000B229AF80030444C5B0043F00103A8F10207C4F80038022008F1FF3AC4F80428D9
:202420004F4405F077FB574541F699154FF080561ED000F07DF900EB050BD4F80438DA07D4
:2024400049D4D6F8AC3120465B68984710F00C0F48D100287FF471AF0923D4F80828022073
:202460000AF8012FC4F8043805F054FB5745E0D10523294E0220C6F8043805F04BFB00F0BB
:2024800057F900F5CC541934D6F8045815F001052FD14FF08053D3F8AC311F485B68984792
:2024A00010F00C0F2BD100287FF447AFD6F80838C84408F8013C00F03BF9174D00F5CC5480
:2024C0001934D5F804385B0621D500F031F9031B002BF6DB31E700F02BF9A0EB0B00002831
:2024E000ABDB2AE704230220C4F8043805F012FB23E700F01DF9031B002BC5DB1DE70423DE
:202500000220C6F8043805F005FB284616E7012014E700BFCF2E0020002000404FF08053D5
:2025200070B53A4A04461170D3F8B83102205B6B984701283ED0FFF787FC354B1A78A24206
:2025400040D00022334D34491C70C5F80428C1F810241B78002B36D0012B20D14FF08054F6
:20256000D4F8B4314FF4C04108209B699847D4F8B4314FF4C04109209B699847D4F8B431A9
:20258000092208212846DB6C9847D4F8B43105209B6B9847D4F8B43106209B6B9847BDE837
:2025A00070404FF08053D3F8AC3101221B4919481B6818471A4B1B6EDB07BCD5144B1A7895
:2025C000A242BED170BD4FF08054D4F8B4314FF4C04105209B699847D4F8B4314FF4C04156
:2025E00006209B699847D4F8B431062205212846DB6C9847D4F8B43108209B6B9847D4F8B5
:20260000B43109209B6B9847C9E700BFCF2E0020A20700200020004000000542006CDC0281
:202620000020084010B54FF08054D4F8B83104205B699847D4F8B83104205B6B9847012837
:20264000F8D110BD38B5002400254FF080531A4A0420C2E90045D3F8B8315B6B98470128A2
:2026600001D0FFF7DFFF4FF08053D3F8B8310020DB6998470121114B114A9962936A9B0739
:20268000FCD54FF080520F4C0F49E368204623F4807323F00103E360D2F8C83104251B6821
:2026A0009847312040F221210122084B2560E063A1605A6038BD00BFA80700200020086072
:2026C0000020084000000140002100040000244310B505F0B7FA0023044C400E40EAC1129C
:2026E000C4E90023D4E9000110BD00BFA807002010B505F0A7FA0023064C400E40EAC112D6
:20270000C4E9002302F0ACFC00B910BDBDE8104002F086BCA8070020014B9868704700BF0F
:2027200000200940704700BF0146012000F04AB805F07CBA2DE9F84305F0E4F901254FF4A9
:2027400080724FF000094FF480334FF080561B4CDFF86C802321C8F800906560626063602C
:20276000D6F8843107461B6848469847D6F88431242128461B689847D6F884312521022016
:202780001B689847236843F4E0232360C4F8089005F04CFA0346D6F8B02103F50073E36169
:2027A000C8F8A052C8F800501420136998470FB1BDE8F883BDE8F84305F0A8B90020094049
:2027C00000002443431E012B10B419D9042815D100231A4610F004001CBF124C21621BB12E
:2027E0000121114BC3F880121AB101220E4BC3F8A02218B101220C4BC3F8C02210BC7047E7
:20280000012808D10346074A916110F0020204D0044CE161DEE70023F7E7002BEED01046BB
:20282000DEE700BF0020094000002443014B1868704700BFF008002010B5FFF779FF194B53
:202840001860FFF755FF184BD3F8A0307BB9164BD3F88020EAB9144BD3F8C02032B1002008
:202860004FF48031114AC3F8C002516010BD4FF480730E4C636005F0D9F900F2052020F4C9
:20288000FF70094B20F00100E061D3F88020002AE1D000200121054AC3F88002516002F06C
:2028A00007FDD8E7F008002000002443002009400122024BC3F8002C704700BF0000084058
:2028C00010B505F01FF9114BD3F8002C012A0AD04FF0864201210E4C1C60C2F80411C2F846
:2028E000001178B110BD4FF086410A4CC3F8004C074C1C60C1F80421C1F80021C3F8002C00
:202900000028EFD1BDE8104005F000B900000840502D190051E5CC1A0122014BDA607047D2
:202920000000084070B5044605F0ECF821460646114802F0EDFF104802F0E8FF38B10121E1
:202940000E4B0F4AC3F8001253699B06FCD54FF08055D5F8A03160681B689847D5F8A03150
:2029600060689B6898471128F8D106B170BDBDE8704005F0CBB800BFF408002000002243BA
:202980000010094008B5064802F0C0FF38B10121044B054AC3F8001253699B06FCD508BDB9
:2029A000F4080020000022430010094010B5A8B14FF0805C0021134C134A6368012023F424
:2029C000C0536360DCF8A031C2F88011C2F80012DB68984763699B06FCD410BD04460B489C
:2029E00002F094FF0028E3D005C814430028FBD1002CDDD0034A536823F4C05343F40063BA
:202A0000536010BD0010094000002243F408002038B5054605F076F804462946054802F0C9
:202A2000C3FF0020FFF7C2FF04B138BDBDE8384005F06CB8F408002070B590B10E46002423
:202A4000451E04E0A64206D000F04EF9013415F8010F0028F6D100F067F90128FBD020464F
:202A600070BD0446F7E700BF10B40C4B0C4C1A780133FF2A0FD1A342F9D10A4C49B10139C7
:202A8000631801381978A34200F8011F03F1FF33F8D110BC7047014CF0E700BFC8FF0100D7
:202AA000D0FF0100F012005038B54FF08055D5F8B83102205B699847D5F8B83102205B6BDA
:202AC000984701280446F7D1D5F8B8314FF40070DB699847034B044A9C62936A9B07FCD546
:202AE00038BD00BF0020086000200840F0B54FF0805540F2F27683B0284CFFF7D5FFD5F8A1
:202B0000D0312046DB689847D5F8B03115205B699847A36BD5F8B42123F4FE6323F0020366
:202B2000A3636664D36B1D2098474FF000514FF0FF331B4A2046C2F89010D5F8B421009310
:202B4000176C1C211D22B847D5F8D02160232046576814494FF4E132B847142240F20113E3
:202B600040F201306263E26A0F4942F01002E2620A68002A18BF0346236366640B685BB176
:202B80001520A36BD5F8B02143F05003A363136903B0BDE8F040184703B0F0BD00100040B5
:202BA00000200240006CDC02F80800204FF0805370B5D3F8B83104465B6B02209847012824
:202BC00007D13B4BDB6ED80703D53A4A93691907FCD4032C47D0384B1B6803B170BD4FF0BB
:202BE0008055D5F8B83102205B6B9847012858D12F4BDB6EDA0715D54FF080562D4DD6F846
:202C0000D0312846DB689847D6F8B03115205B69984740F2F272AB6B23F4FE6323F0020360
:202C2000AB636A644FF08053D3F8B8314FF400701B6A9847032C25D00121204B1C4A9962C9
:202C4000936A9B07FCD51D2000F000FA1C2000F0FDF94FF0FF3000F0F9F9BDE870404FF0D7
:202C6000FF3000F0F3B94FF08055D5F8B83102205B6B98470128BBD0D5F8B8314FF40070DB
:202C80001B6A98474FF08054D4F8B8314FF400709B6A9847D4F8B8314FF400701B6B9847A4
:202CA000CAE7D5F8B8314FF400701B6A9847C3E70020084000100040F8080020002008608C
:202CC00010B504F01FFF0446054800F0A3F90022044B1A6004B110BDBDE8104004F016BFCF
:202CE00068050020F80800204FF0805310B5D3F8B83104465B6B0220984701280BD0FFF791
:202D0000F5FE4FF08053D3F8D0312146BDE810400348DB691847034BDB6EDB07F1D4EEE785
:202D2000001000400020084008B54FF08053D3F8B83102205B6B984701280AD1064BD86EF6
:202D400010F0010004D0A3F501239869C0F3C00008BD002008BD00BF0020084070B5FFF782
:202D6000A3FE40F2F2720C4C236C626413F0500F0DD00A4D4FF0805606E0D6F8D0312046A9
:202D80001B6998472B681BB9A369DB06F5D570BDC0B29847EEE700BF00100040F808002030
:202DA0004FF0E022D2F8103D23F00403C2F8103D30BFFFF7B1BD00BFF8B504F0A3FE02F054
:202DC00003FC18B1BDE8F84004F0A0BE884802F09DFD0225044648B1636823B19847A842CE
:202DE00028BF2846C5B22468002CF5D1FFF7A0FC804B0446D3F88032002B00F0D2807E4B2F
:202E00009B691B1A022B00F19680A3F28F23002BACBF02200120854228BF054602F020F921
:202E2000002840F08E80012D00F0CB80022DC9D12846611EFFF7C6FC6D4802F067FD06251F
:202E40000446002800F0AF80A3680BB1022098472369246825EA0305002CF5D1FFF75CFDA9
:202E60006B0700F1A380002D40F0A38000F0BCF90020FFF79BFD4FF08052604C3920236858
:202E800023F003032360A36843F00F03A360D2F8B8319B6998470020594B20642064C3F826
:202EA000200404F0D9FE062D00F09D804FF080560027544C504D0321EB6AD4F82432524835
:202EC00023F00303C4F82432D6F8D8315B689847D6F8B8319B6B9847EB6A04F0DDFF4B4AF8
:202EE000D6F8D831C2F88071474801215B6898470121D4F82432464A43F00303C4F82432DE
:202F0000D160EB6A04F0FAFFFFF73CFDFFF7F0FBFFF702FD364802F0F9FC044628B1E36866
:202F200003B198472468002CF9D104F0EFFDBDE8F84004F0EBBD02F093F800283FF442AF5A
:202F4000002502F095F80646FFF7C2FB361A002E7FF738AFFFF76AFC00EB46210B1BA3F28A
:202F60008F22002A36DA002D3FF42CAF082B2ED404F58034631A31EA230128BF214602201D
:202F8000FFF720FC4FF0E022D2F8103D23F00403C2F8103D30BFFFF7BFFCBDE8F84004F035
:202FA000B5BD022037E7FFF7B7FC06250022184BDA604FF08053D3F8B83128469B699847B5
:202FC00054E7022004F58031FFF7FCFBDAE704F10801D4E7012DC9D0022D7FF4F3AE28460B
:202FE000FFF7F0FB28E7022004F038FD5EE700BFFC08002000002443002009400010094045
:2030000000002243002008400040034000000443004009400146014802F07ABCFC080020B4
:203020000146014802F0C0BCFC08002010B5064802F068FCBDE810404FF08053D3F884317E
:20304000202103201B681847FC080020431C10D04FF0805310B5D3F8B43104461B684FF430
:20306000C042002198470023024840EA8404236010BD7047001A4442034BD3F8E000C3F8D4
:20308000E00002F09FBF00BF002002404FF0805370B5D3F8B4310C465B680546984714F0B5
:2030A0000C0320F0E06222F4EC2207D0042B23D0082B24D00C2B08BF42F4403214F00303BB
:2030C00010D142F4C04223064FF08053D3F8B4312846BDE870404FF000011B6848BF42F429
:2030E00080221847022B04D0012B08BF42F48042E9E742F40052E6E742F40032DEE742F45B
:203100008032DBE7074AD2F8D030C340DB074CBFD2F88030D2F8C03023FA00F000F00100FE
:20312000704700BF002002400022412300B585B002A8CDE90223FFF7F5FB042004F0D2FCF6
:20314000032805D102A8FFF763FC05B05DF804FB0321042004F09AFC042004F0C3FC032892
:20316000FAD11C234FF0405200210090044804F001FD02A8FFF74CFC05B05DF804FB00BFD5
:2031800000A00C400022412300B583B06846CDE90023FFF7C7FB012004F0A4FC012803D0E5
:2031A0000121032004F072FC6846FFF731FC03B05DF804FB0022412300B583B06846CDE9BE
:2031C0000023FFF7AFFB012004F08CFC012805D04FF08053D3F8800004F014FD6846FFF78B
:2031E00017FC03B05DF804FB10B54123002482B06846CDE90043FFF795FB0320214604F08B
:2032000045FC012004F06EFC20B96846FFF700FC02B010BD4FF08053D3F8800004F0F2FCB7
:203220006846FFF7F5FB02B010BD00BF70B5038804463BB140F2CB22934208D182290AD084
:20324000012070BD40F2CB232380012070BD00232380032070BD094B094E1D69FFF75CFB7B
:2032600003F09EF903F06CFA8021A847002880B2E8DD03F05FFAF3689847EFE7FC01010062
:2032800028050100024BD3F89C0100F001007047002008404FF0FF332DE9F0412E4C804643
:2032A000236023680F460B6010F0030302D1028811050DD404F026FC284B0546D3F89C317A
:2032C000DB071BD4002D36D000252846BDE8F081438004F017FC214B0546D3F89C31DA0747
:2032E000F0D5B8F8003013F4405F07D003F44063B3F5006F04BF1A4BC3F80080194E4CF2F3
:203300005032C6F800807368236003E07368013A236018D02368DBB2002BF7D085B1236860
:203320003B602568EDB2A5F10105B5FA85F56D092846BDE8F08104F0E9FB2846BDE8F081AB
:2033400004F0E4FBEBE71DB1236800253B60BCE704F0DCFBF8E700BF000900200020084012
:2033600004090020001004400B4A01E0013A11D0438803F44063B3F5806FF7D14388074A9A
:203380009BB21360428802F44062A2F58062B2FA82F252091046704720A107000009002019
:2033A00070B54FF0805482B004F0ACFBD4F8B03105461B6A19209847D4F8B03112201B6A0F
:2033C0009847D4F8B03119205B699847D4F8B03112205B699847D4F8B83101205B6998478A
:2033E000D4F8B83101205B6B98470128F8D1174A174BD0629862936A9B07FCD54FF08054EE
:203400000022144BD4F8B0111A615A6119200B699847D4F8B03112201B6998479DB140F21A
:20342000FF3600240C4B0D4A0D4D01A92E600D48DC611A60FFF72EFFA0F10100B0FA80F018
:20344000400902B070BD04F061FBE8E700200840002008600010046000100440510007060F
:20346000000004600100060400B587B01422002101A80CF0E3FD4FF0010C40F60A02184926
:203480009DF8113009686CF30303059101A86946ADF804208DF81130FFF7FCFE012803D017
:2034A000002007B05DF804FB0E4801E00138F8D0BDF8063003F44063B3F5806FF6D1BDF811
:2034C0000630094A9BB21360BDF8060000F44060A0F58060B0FA80F0400907B05DF804FB71
:2034E0001409002020A107000009002000B587B01422002101A80CF0A1FD4FF0010C40F696
:2035000009029DF8113069466CF3030301A8ADF804208DF81130FFF7BDFE012803D0C0B25F
:2035200007B05DF804FB134A01E0013A1CD0BDF8063003F44063B3F5806FF6D1BDF806304D
:203540000D4A9BB21360BDF8063003F44063B3F5806F09D1094B1A7852B90122059808495C
:203560001A7008601046DBE7002007B05DF804FB0120D5E720A1070000090020D02E00202A
:203580001409002030B54FF0805487B004F0BAFAD4F8B03105465B6919209847D4F8B03196
:2035A00012205B699847334BD3F89C31DA072FD4FFF79CFF002001212E4A2F4BD06299624A
:2035C000936A9B07FCD54FF08054D4F8B83101209B699847D4F8B83101205B6B984702280A
:2035E000F8D1D4F8B03119201B6A9847D4F8B03112201B6A9847D4F8B03119201B6998472C
:20360000D4F8B03112201B6998476DB307B030BD00211A4B102219610124596102A80CF0ED
:203620000DFD40F60D029DF8153002A864F3030301A9ADF808208DF81530FFF72BFEA04218
:20364000B6D10F4A01E0013AB2D0BDF80A3003F44063B3F5806FF6D1BDF80A30094A9BB276
:203660001360BDF80A30A3E707B0BDE8304004F04DBA00BF00200840002008600010046074
:2036800020A107000009002008B504F073FC052803460ED0032806D080B903220C4B0120EE
:2036A000C3F8D02108BD0222094B0120C3F8D02108BD074A0120C2F8D03108BD012801D0A3
:2036C000002008BD0521024AC2F8D01108BD00BF0020084008B5FFF763FE012804D1FFF704
:2036E000C3FE012800D108BDFFF74CFF002008BD08B5FFF7FBFEFFF7B7FE012800D108BD0E
:20370000FFF740FF002008BD38B5194B194A1978D2F89C210029184C18BF0024D30700D48D
:2037200038BD04F0EFF902464FF080550021134B134898615C611446D5F8B0211961136ADD
:2037400019209847D5F8B03112201B6A9847D5F8B03119201B699847D5F8B03112201B695F
:203760009847002CDCD1BDE8384004F0CFB900BFD22E0020002008400000C08000100460FD
:2037800000004080094B1B782BB100231946084A116153617047074A074B0849002808BF12
:2037A0001346034A11615361704700BFD22E0020001004600200C0800800C0800000C08069
:2037C000044A054B1178054A002918BF00235361704700BFD22E00200000C0800010046052
:2037E000014B1868704700BF0409002038B50B460446154600211A460CF020FC0122637BDD
:20380000258062F30303637338BD00BF014B1860704700BF0809002010B5064B06495C688A
:2038200006480C6000234FF43441054A01F0BEFC012010BD00300440100900201C09002019
:20384000B5380000164B1B6843B370B59B68984708B9002070BD04F055F90023114A124E6C
:203860005468326814F1804143F10003914273F10003054603D3346065B1012070BDFEF7AD
:2038800057FF0A4A0A4913680860013313603460002DF2D104F03AF9012070BD00207047D1
:2038A000080900200030044010090020180900200C09002010B5134B1B68B3B19B689847C8
:2038C000D8B9114C236A984701280ED1FFF7BAFF636A0446984744B1BDE8104000234FF491
:2038E00034410A4A0A4801F061BC0023BDE810408021064A064801F059BCFFF7A3FF044660
:20390000E9E700BF08090020FC010100B53800001C09002070B5204E3368002B39D09B6852
:203920000446984708BB1D4D2B6A9847FFF78AFF6B6A98471A4BB4F1404F1D681CD83268DE
:20394000184BB2F90C101A68CB17891A63EBE273091945EB03052D0243F609520023080249
:2039600045EA11610CF0BAF870BDFFF76BFF0C4BB4F1404F1D68E2D9FEF7DAFE0A4B1B68FB
:20398000C3F17E4303F57203C34248BF05F1FF35D5E7184670BD00BF08090020FC010100DA
:2039A00018090020140900200C09002010B5104BD3F89C31DA0704D4FFF7F2FC012800D006
:2039C00010BD0C4C23695B0204D46FF00042094B1A6110BD0122084B08481A7001F030FE55
:2039E0006FF480036FF000422361024B1A61F0E70020084000100460D32E00207C0500207F
:203A000008B5114BD3F89C31D90704D4FFF7C8FC012800D008BD04F075F80C4B1A69120276
:203A20000BD40A4B1A6912F00A0F1CBF6FF00A021A61BDE8084004F069B86FF40002044840
:203A40001A6101F0FDFDECE700200840001004607C050020014B1878704700BFD42E00203C
:203A600008B5FFF70FFC30B1034B5888A0F10200B0FA80F0400908BD400900207D2901D9D5
:203A80000120704708B50A46014602480CF0E4F9002008BD160C002010B588B040F6020279
:203AA000182102A8FFF7A2FE012211499DF818300968104C898823F00F03ADF81A1002A8B7
:203AC00001A907948DF818308DF81620FFF7E2FB012802D0002008B010BD02A8FFF744FCC6
:203AE000A0F10100B0FA80F0400908B010BD00BFCC050020A0050020F8B50E4D00200E4E53
:203B00002C680E4F06E02379022B06D024682B68A34209D02379032BF5D133782BB12468AF
:203B20002B680120A342F5D1F8BD384601F088FD0120EBE7080C0020D22E00207C05002095
:203B400030B583B0FFF74CFE0446FFF79BFB08B903B030BD0A4801A9FFF79CFB0128F7D15C
:203B6000FEF7E6FD6FF03F052D1A03E0FEF7E0FDC542EDD5638803F44063002BF6D0E7E7C1
:203B8000010001040B280BD00C2801D001207047042A08D139B10A4B00201B680B60704729
:203BA000082A00D109B902207047064A4B1E073112F8010903F8010F8B42F9D100207047E9
:203BC0003C0900206F090020082200B585B000210DEB02000CF032FA42F2034302A801A9C3
:203BE000ADF80830FFF756FB20B19DF90A30803303D0002005B05DF804FB9DF80C0000F0C0
:203C00000C00A0F10400B0FA80F0400905B05DF804FB00BF082210B584B00DEB020000219A
:203C20000CF00CFA02229DF80C3042F2034462F301038DF80C300CE0082200210DEB0200C7
:203C40000CF0FCF902A801A9ADF80840FFF722FB38B19DF80C0000F00303022BECD004B002
:203C600010BDFF2004B010BD2DE9F043DFF8CC8083B081460F46D8F80060FEF759FD304D24
:203C80002D1A03E0FEF754FDC5421DD53479022CF8D0032C13D1D8F800100B7A062BDEB2DF
:203CA00002DDB51FBD4211DD00231D4628460A680B71C8F800200B7203B0BDE8F083002535
:203CC000284603B0BDE8F0833479E2E72A46093148460CF0C1F80422D8F80010F31CCB5C0C
:203CE000184F5BB23B70331DCB5C05363144164E03F03F030DEB020033700CF0ADF801980E
:203D0000FFF708FE114B124A1B7810605BB100222846D8F8003019681A72C8F800101A71E8
:203D200003B0BDE8F0833978042049B289B202F057FD2046317802F053FDE8E7100C00200B
:203D4000F4FEFFFFA3070020D12E0020D22E00203C09002030B583B0FEF7EAFC194C241A6F
:203D600006E0FFF731FF38B1FEF7E2FCC44203D5FFF788FA0028F4D101A91348FFF78AFAB9
:203D80006FF03F04FEF7D4FC104D241A06E06888022808D1FEF7CCFCC44203D5FFF772FA4B
:203DA0000028F4D1688842F20243984207D042F20743C01AB0FA80F0400903B030BD012080
:203DC00003B030BD00FEFFFF010001044009002008B5FFF757FA30B1044B5B88022B14BFC1
:203DE0000220012008BD022008BD00BF4009002030B583B0FFF746FA30B1134C6388022B06
:203E000002D1012003B030BD0F4801A9FFF742FA012802D0002003B030BDFEF789FC6FF047
:203E20003F05094C2D1A03E0FEF782FCC54209D560880228F8D1A0F10200B0FA80F0400996
:203E400003B030BD6088F6E74009002008B5FFF723FE012801D0002008BDFFF7C9FFC0B2B1
:203E600008BD00BF10B5FEF763FC1A4C241A06E0FFF7AAFE38B1FEF75BFCC44203D5FFF774
:203E800001FA0028F4D1FFF7FDF9134C20B16388022B01D1FFF75EFFFFF774FBFFF7A4F9E9
:203EA00000220E4B62801979022908BF1A710C4B1A79022A04BF00221A710A4B1A79022AFC
:203EC00004BF00221A71084B1A79022A04BF00221A7110BD00FEFFFF40090020D8090020BD
:203EE000640A0020F00A00207C0B002008B5FFF7B1FD012801D0FFF7B5FF012008BD00BFC9
:203F000010B5FFF7A7FD012808D0FFF73BF9FFF7B9F928B11D4B5B88022B01D1012010BD5E
:203F20004FF0010C4FF0840E19481A4B44791A496CF3830401601860A0F806E044714879CB
:203F4000164A6CF383000A60A1F806E04871507959796CF383006CF383011360A2F806E02A
:203F6000A3F806E050715971FFF724F9FFF7B2FB012801D0002010BDFFF7C6FBFFF78CFD62
:203F80000128F7D1BDE81040FFF732BF40090020D80900207C0B0020640A0020F00A00209B
:203FA000F8B50025354E3648FFF734F8FFF76CFB8C22294630460CF041F88C222946314851
:203FC0000CF03CF88C2229462F48304C0CF036F88C2229462E480CF031F82E4F2E4B802227
:203FE000294620463E601E607D600CF027F842F601032A4E2360A623304642F202024FF2E9
:20400000F001276101272377E36820F8022B1940234AA369C4E901551A4094F83730C4E906
:20402000085567F3030384F837301E4BE5830B43E3601D4B04F118011343A3611B4B022224
:204040006361A5630BF008FF3A4604F11A01301D0BF002FFFFF754FFB84202D02C462046CC
:20406000F8BD04461248FFF7D1FBFFF7D5FB2946104801F0EFF92046F8BD00BFD8090020E4
:204080008C050020640A0020F00A0020400900207C0B0020080C0020100C0020C00900205E
:2040A000007C008000011AB10702FF6FC8090020340201007C05002070B5FFF7CBFC0128ED
:2040C00035D0FFF7DFF8A8B3224E7388022B31D1FEF72EFB204C241A06E0FFF775FD38B11A
:2040E000FEF726FBC44203D5FFF7CCF80028F4D1FFF7C8F8D8B100257388022B26D1FFF7AC
:2041000089FDFF2822D000F00300441E18BF012475B1FFF79FFC01280AD0FFF7A3FE2046F8
:2041200070BDFFF797FC012801D0FFF79BFE0124204670BDFFF7E4FE01280446F1D1FFF785
:20414000A1F80028E5D02546024ED5E70124002DEED0DEE74009002000FEFFFF70B588B0DB
:204160000546FFF78FF800285AD03A4B5B88022B56D10024FEF7DCFA6FF01F06361A07E0BF
:20418000FFF722FD012854D1FEF7D2FAC64252D5FFF778F80028F3D1182142F6014202A81C
:2041A000FFF724FB00222C4BE8B28DF81700069304929DF81430012062F303038DF81430CE
:2041C000FFF7E0FA02A801A9FFF764F8D0B1234DBDF80A302A7803F4406333B982B3BDF877
:2041E0000A3003F44063002BF8D0BDF80A50ADB2B5F5105518BF0125FFF7E2FA3CB9284649
:2042000008B070BD0125FFF7DBFA002CF7D0FFF721FC0128F3D0FFF725FE284608B070BD6A
:20422000FFF76EFE01280446A4D00125284608B070BD0028B0D034B90225284608B070BDAD
:20424000FEF7AEFDC4E7FFF705FC0128F4D0FFF709FEF1E740090020160C0020D22E00208F
:204260007D2801D901207047FFF778BF7D2901D90120704710B50C460A46014603480BF06E
:20428000EBFD2046BDE81040FFF768BF160C002010B5FFF7DFFB01281AD0FEF7F3FFB8B184
:2042A0000C4C6388022B13D1FEF7ECFF60B9FEF7E9FF68B16388022B0AD1FFF7ABFCFF2804
:2042C00006D0C0F3801010BDFFF77EFC0028EED0002010BD400900200B2810B502D001245D
:2042E000204610BD082A23D111B3154A01F1080313F8010D8B4202F8010BF9D1FEF7C2FFD9
:2043000004460028ECD00F4C6388022B15D1FEF7B9FF80B16388022B0DD1FFF71BFD01280B
:2043200009D00324FFF764FD012818BF0324D7E70224204610BD0024F4E70024D0E700BF4F
:20434000680900204009002030B585B0072800F2BB80DFE800F029323D474A7176045B4C7B
:204360002177FEF78FFF002838D06388022B35D1FEF788FF002800F08C806388022B40F0EC
:204380008880FFF7E7FC012818BF032400F08180FFF7AEF901287ED0FFF72AFD012818BFF3
:2043A0000324204605B030BD012900F08780002974D00224204605B030BDA1F10B030F2B38
:2043C000F7D8424CC9B2A37B8B4207D0A173C8E73E4C6186FEF756FF0028C6D1002420467C
:2043E00005B030BD394C2186BBE731F00703E0D1364C01F00103228B3548C1F3400543F0A4
:20440000020302F4FE4243EA850313430278C1F38001914223830170A3D104F11801022217
:204420002C480BF019FD2C4803A9FEF733FF00280CBF03240024B4E731F00103B9D1CCB2AA
:20444000AFE701F115031A2BB3D86FF014030C25224A01E052F83530994229DD013DF9D25F
:20446000FEF710FF044600289BD00422002103A80BF0E4FD1022194B03A803EBC505AB8861
:2044800002A90024ADF80E30ADF80C20FEF702FF87E700247CE7FFF7D5F97DE70191FFF7FE
:2044A000D9FA01289AD0FFF7DDFC01990C4678E70A4B0B4A03EBC5031360D1E7FFF720FDDE
:2044C00001288BD003246CE701246AE740090020D22E0020C2090020C009002044020100C4
:2044E000CC050020D1B170B50C4684B0182813D8DFE800F03EB0AB684D0D16A5736D39127B
:20450000121235312C281224201C0DB56400002318460B6004B070BD0120FBE7022070477C
:204520005D4B00201B681B680B60F3E70A2300200B60EFE7202300200B60EBE703230020F4
:204540000B60E7E7052300200B60E3E76FF0140300200B60DEE71A2300200B60DAE70B2328
:2045600000200B60D6E74D4B00201B780B60D1E7FEF788FE002800F08A80494B5888A0F1E3
:204580000203B3FA83F35B0900202360C2E70023434A0B60137E03F001030B60127E52074C
:2045A00044BF43F002030B603E4B1B78002B44D00B68002043F004030B60ABE77D23002070
:2045C0000B60A7E7364B00201B8E0B60A2E7364B00201B785BB20B609CE7FEF753FE002807
:2045E0003FD02F4B5B88022B3BD10026082200210DEB02000BF022FD02229DF80C3042F268
:20460000034562F383038DF80C300AE0002102A80BF014FD02A801A9ADF80850FEF73AFE77
:2046200048B39DF80C2002F00C02082AEED03EBB9DF90A30236080332BD000206AE7184B00
:20464000002093F91C300B6064E7154B00205B8E0B605FE7124B00209B7B0B605AE7182318
:2046600092E7FFF74DFC01280646BFD06FF07F03032023604EE780238DF80A30002EF5D06D
:20468000FFF7E8F90128D3D0FFF7ECFBD0E703467AE703203EE700BFCC050020D12E002022
:2046A00040090020D22E0020A307002008B500F077F880B208BD00BF00F004B938B54FF0FC
:2046C0008055D5F8B83104205B699847D5F8B83104205B6B984701280446F7D1D5F8B83118
:2046E00040F20140DB699847034B044A9C62936A9B07FCD538BD00BF002008600020084076
:20470000034B1B68002B0CBF02200120704700BFCC0C0020F8B5038804465BB3B3F5847FE6
:204720002DD1194B1B788B4201D00120F8BD174D2B686BB14FF080530026154AD3F8CC319E
:2047400057685B680220984739462B6898472E604FF08053D3F8B83140F201409B6A98473A
:2047600001210C4B0C4A9962936A9B07FCD50B48FEF756FC4FF4847323800120F8BD00238F
:2047800023800320F8BD00BFA4070020CC0C0020008002400020086000200840D005002075
:2047A00070B52B4B1B686BB12A4900230A4612F8014B002C3CD10133042BF8D1254620464D
:2047C000294670BD4FF08053D3F8B83104205B6B9847012837D0FFF771FF1F4A1F4B92684B
:2047E0001A4210D101221E4BC3F8F02FD3F8F02F002AFBD110464FF4807103F071FC012229
:20480000184BC3F8A82203F07DF90646124A9368DB07FCD54FF08053D3F8CC3102205B6832
:20482000556898470446002EC9D103F06FF9C6E700200D4AC85402EBC30552F833406D68E8
:204840002046294670BD094BDB6B9A07C5D4C2E7CC0C0020D00C00200080024001000080A2
:204860000090024000005042B00700200020084038B500244FF080510E4D0F4AC5F8A84219
:20488000D368D1F8B01123F00103D3604B6931209847224620464FF4807103F021FC0121F1
:2048A000064BC5F8A812224619780548BDE8384000F094BE0000504200800240A40700206C
:2048C000E405002010B5074C2378802B00D010BD00F0B8FD0346002123700348BDE81040F2
:2048E00000F0B8BDA4070020E405002008B503F009F9003818BF012008BD00BF80F310880E
:20490000704700BF827A044B03EBC2035B68181AB0FA80F040097047D40C00202DE9F043CB
:204920004E4F827A0121064685B007EBC20202E0C2E8441F4CB1D2E84F3F13F0FF05F7D083
:204940000325284605B0BDE8F083BFF35F8F4FF08059B37ADFF8088107EBC3077E60D9F844
:20496000B431F078DB6B9847B37A08EB03135868D9F8B8315B699847B37AD9F8B82108EBA8
:204980000313526B5868904701280746F4D1D9F8B831DA69B37A08EB031398689047314BEC
:2049A000314A9F62936A9B07FCD503204FF08051B37A1B0158F80320536923F00F03536187
:2049C000B37A1B0158F803301862D1F8C4311F68B37A1B0158F8030033893BB1337A002B30
:2049E00035D1737A002B0CBF03240124082322464FF08054019373681C4900930023B84753
:204A0000B37A96F800C0D4F8B471B27871781B01CDF800C058F803007F6C4FF0FF33B847C8
:204A2000B37A1B0158F80320536843F002035360B37AD4F8C4211B01126958F8030003A9A0
:204A400090470028F4D1284605B0BDE8F083737A002B14BF03240224C8E700BFD40C0020B1
:204A6000C80201000020086000200840006CDC0270B5264D837A05EBC3025268904201D08A
:204A8000042070BD4FF08051214A044602EB03139868D1F8B8311B6A984701211D4B1E4AF5
:204AA0009962936A9B07FCD54FF08056D6F8B43160789B6B9847D6F8B4314FF400516078E7
:204AC0009B699847D6F8B431A0789B6B9847D6F8B4314FF40051A0789B699847D6F8B4314E
:204AE00020789B6B9847D6F8B4314FF400519B69207898470023A27A05EBC2025360A27AB5
:204B0000BFF35F8F184605F8323070BDD40C0020C802010000200860002008402DE9F04FFB
:204B20009846334D837A164605EBC3056A6885B0904203D0042005B0BDE8F08F4FF0805945
:204B40002C4D044605EB03135868D9F8B8310F465B6B9847012849D1A37A2749886F05EB61
:204B60000311C9681B01084240D0DDE90E210A44B242B8BF3246002A019235D0D8BF0DF1FD
:204B80000C0A24DD4FF0000B0DF10C0A5E45D4BF002117F80B10E8580391D9F8C4315B68C2
:204BA0009847A37A51461B01E858D9F8C431DB6898470E9B5B45C4BF039B08F80B30019BDD
:204BC0000BF1010B5B45A37A4FEA0313DED14FF0805601E0A37A1B01D6F8C421E858514659
:204BE000136998470028F5D10020A4E70520A2E7D40C0020C80201000020084038B5654C42
:204C0000FCF76EFAFDF71EFD00F050FB00F054FC0021614800F01EFC00F0B4FAFDF748FE03
:204C200000F04AF900F03EFDFCF796FA01F0E4F901F020FE00F050FA2368022B39DC082285
:204C4000564957480BF008F90021564800F002FC4FF0FF3004F018FF23680546022B11DC04
:204C6000FCF790FA504800F0C3F8FDF729FE00F03FFC0446E4B2FDF74FFE002CF7D1FCF726
:204C8000EDFAF4E7494A4A494A4803F0F5FE4A4803F0F2FE2368022BE2DD05B1023528466D
:204CA00000F0CAF82368022BDADD444803F0E4FED6E73E4A3E493F4803F0DEFE404803F0D5
:204CC000DBFE2368022BBADD384A3949394803F0D3FE3C4B3C48196803F0CEFE2368022B60
:204CE000ADDD324A3249334803F0C6FE374B3848196803F0C1FE2368022BA0DD2B4A2C49AD
:204D00002C4803F0B9FE334B3348196803F0B4FE2368022B93DD254A2549264803F0ACFE46
:204D20004AF6CD312D4803F0A7FE2368022B86DD1E4A1F491F4803F09FFE1A21284803F0A8
:204D40009BFE2368022B7FF77AAF184A1849194803F092FE234B2448198803F08DFE236838
:204D6000022B7FF76CAF114A1149124803F084FE1E4803F081FE2368022B7FF760AF07488D
:204D800000F06AF82368022B7FF759AF0B4803F073FE54E7F4050020F80500200C17002020
:204DA0004C240020DC06002030070100E8020100F0000100F8000100AC0301000407010098
:204DC000F00201007C060100200301009805010030030100280501003C03010048030100AD
:204DE00064030100B62E0020840301009403010010B50446006830B1002100F02BFB54F84C
:204E0000040F0028F8D110BD10B541600446FDF783FC206010BD00BF10B50446FDF77CFC17
:204E2000D4E900316FF000420B44C01A90422CBF0020012010BD00BF00B58BB002462821AF
:204E4000684605F0DDF86946024803F015FE0BB05DF804FBD003010028B32DE9F0410025B1
:204E600004460126114FDFF8488065B1EB070FD53846217803F000FE082E12D00135013649
:204E80000134002DF2D13846217803F0F5FDF5E7404603F0F1FD3846217803F0EDFD082E84
:204EA000ECD1BDE8F081034803F0E6BDE8030100E4030100D4030100704700BF10B5FDF763
:204EC00007FC0B4B1A68D2E9003192680B44191A52B1D2E9003423441B1A9268994228BF45
:204EE0001946002AF5D14318024A136010BD00BFE80C0020E40C00202DE9F8430388054672
:204F000053B3592B2BD187292ED082291FD14FF000092B4FDFF8AC803C68C4B1002603E0DB
:204F2000A36826469BB11C46204600F0ADFB0028F6D022468821E06800F050FB00282BD0A9
:204F4000404600F07DFBA3682646002BEBD159232B800120BDE8F883194A1360F7E70023C6
:204F60002B800320BDE8F883154F0020396819B9EDE789680120D9B1CB689342F9D000B15A
:204F800039608B68002BE2D0D86890420BBF9B6819468B609B68F5E7A368E0606EB1B36023
:204FA0003B68C4F808902BB1FFF788FF3C68B4E73960CCE7044A1360C9E73B60F1E700BF73
:204FC000E80C0020F8050020E40C002010B50446104800F035FB1049E3680A684BB142B104
:204FE00094420FD0134601E09C420BD09B68002BFAD10A4BA2601B680C60E360BDE8104092
:20500000FFF75CBF054B1B68E360BDE81040FFF755BF00BFF8050020E80C0020740E0020D8
:20502000014800F00DBB00BFF805002010B5044600F014FB2046BDE81040FFF7C7BF00BFEF
:2050400010B5044600F012FB2046BDE81040FFF7BDBF00BFC068B0FA80F04009704700BFB7
:20506000024B1868003818BF01207047E80C0020024B186808B1024B18687047E80C00204A
:20508000E40C002010B5124B04461968814214D00B462BB19A68A24206D01346002BF9D135
:2050A0000023C4E9023310BDA2689A6049B1FFF705FF0023C4E9023310BD82681A60002AC6
:2050C000F5D10022034B1A600023C4E9023310BDE80C0020E40C0020034A04499079D3793B
:2050E00003EB00230B8070470C170020B62E0020F0B50388054683B033B14A2B18D1882975
:205100001BD0012003B0F0BD1B4800F0FFFB044630B1A168201DFFF789FF2468002CF8D166
:205120000122164B1A704A2301202B8003B0F0BD002303202B8003B0F0BD0F48019200F09D
:20514000E5FB04460028EED0019A031D9A4205D02468231D002CE6D09A42F9D1084E2146C2
:20516000054800F021FCD4E90523376832600BB1E06998473760D6E7EC0C0020D52E00204C
:20518000740E002010B50024054B06481C7000F0B9FB2146BDE81040034800F05BB900BF4C
:2051A000D52E0020EC0C002008060020F8B50E4C0E4D27782E680446C0E90623466137B93C
:2051C00081602146BDE8F840094800F0A1BB094B04302B60FFF72AFF21462E600448BDE8F5
:2051E000F84000F095BB00BFD52E0020740E0020EC0C00200806002070B50C4B04461B7814
:205200002BB92146BDE87040094800F081BB094D094B2E6804302B60FFF712FF21462E6076
:205220000348BDE8704000F073BB00BFD52E0020EC0C0020740E00200806002010B50A4BCC
:2052400004461B783BB9C0E903332146BDE81040064800F0A9BB0430FFF714FF2146BDE857
:205260001040024800F0A0BBD52E0020EC0C002038B50C4B04461D786DB90B4800F046FB41
:2052800038B1A04202D10BE0844209D000680028FAD1012038BD0430BDE83840FFF7DABE96
:2052A000002038BDD52E0020EC0C0020FDF73ABA10B5084C206858B1D0E90131002222607D
:2052C0009847236823B1BDE810401868FDF72CBA10BD00BFF00C00202DE9F84FDFF8C8801D
:2052E0000546D8F800400E46844257D0002C43D0234601E0002B3FD01B689D42FAD1002BF7
:205300003AD02A4FAB7BD7F8009053B30023AB73002C45D04FF0020A4FF0010BA54211D09F
:20532000A37BDB070ED5A36863B12A4687213C6084F80EA004F10C0098470238012828D949
:2053400084F80EB02468002CE8D1AB683BB1B54205D0002283213D6005F10C009847D8F8C3
:205360000040A5420AD02CB12368AB420CD01C46002CF9D1C7F80090BDE8F88F2B68C7F8D6
:205380000090C8F80030F7E72B682360C7F80090F2E721462046FFF79FFFD3E72346AEE758
:2053A000AB68002BD3D1E5E7780E0020740E002038B583687BB104460220A07309480D46D0
:2053C000046004F10C0098470238012804D9832D02D00123A37338BD21462046BDE83840AE
:2053E000FFF77ABF740E00200022F8B51249134B0C681A70D4B101250227114E01E02468B6
:20540000A4B1E37B002BFAD0A36804F10C00E581002BF4D0002282213460A77398470238F7
:20542000012804D9A5732468002CEAD1F8BD21462046FFF751FFE2E7780E0020D92E00207D
:20544000740E0020024B1878421C1A70704700BFD72E0020F8B5164A1568854207D00446D8
:2054600035B12B4600E01BB11B689C42FBD1F8BD002CFCD025600126146000220D4DA368A8
:205480002F68A673A2815BB10A4602212C60A17304F10C00812198470238B04202D9A67378
:2054A0002F60F8BD21462046FFF716FFF8E700BF780E0020740E002000234FF08A0C074AA1
:2054C00010B4074813700749074A084C80F800C00B701360236010BC704700BFD62E002032
:2054E000D72E0020D82E0020740E0020780E00202DE9F8432E4D2B78FBB92E4E3378C3B15B
:205500002D4C2E492278013B02EB4200013202F01F022270DBB201EB800211F82080337077
:20552000D2E9017464B1B8F1810F1DD0A27BD2071CD428781844BDE8F883FFF755FFDCE7F1
:205540001F4A146854B9F4E7A37BD90704D53A4641462046FFF72CFF24681CB32B78002BF0
:20556000F2D0FFF741FFEFE70122A273D4F80890B9F1000FDDD00223A373124B3A464146BC
:205580001C6004F10C00C8470238012806D9B8F1830F03D001223378A273CAE721462046CE
:2055A000FFF79AFE337828781844BDE8F88300BFD92E0020D82E0020D62E0020F40C002046
:2055C000780E0020740E0020024A034B10781B7818447047D82E0020D92E002030B40F4C2F
:2055E00094F800C0BCF1200F15D005460C4B00201B7863440CF1010C84F800C003F01F0347
:20560000084C03EB430304F8231004EB8303C3E9012530BC7047012030BC7047D82E0020FF
:20562000D62E0020F40C002038B5837B034CDB07256801D5FFF7BCFE256038BD740E0020DB
:2056400018B1837B013B012B00D970470123024AC3731370704700BFD92E002010B541605F
:205660000446FDF735F8206010BD00BF10B50446FDF72EF8D4E90021C2F1010303448B42E1
:2056800084BF5218226010BD10B50446FDF720F8D4E90032C3F10103184482422CBF002021
:2056A000012010BD074B82B001AA9A42019304D9CD2103F8011B9342FBD10021024802B0BD
:2056C000FFF7C8BEF02E00201806002038B5124CFDF722F92378114DCD2B08D0AC4202D3EC
:2056E0000EE0AC4212D014F8013FCD2BF9D1AC4202D30BE0AC4209D014F8013FCD2BF9D05C
:20570000FDF70AF9AC4203D2281B38BDFDF704F94FF0FF3038BD00BFF02E002000500020D6
:2057200070B5038804463BB1912B0ED11F48FFF791FC70B9012070BD4FF4A0611B48FFF7EA
:2057400075FC91232380012070BD00232380032070BDFFF7BBFF164E164B051EA6EB0306EB
:2057600015DB002E13DBB5420DDD134B1B68002B09DD124A1249134803F07EF932462946E7
:20578000114803F079F90948FFF75AFCD9E70A4B1B68002BF7DD094A09490A4803F06CF9C8
:2057A00032462946094803F067F9ECE77C0E002000500020F02E0020F40500200C04010009
:2057C00014040100F800010044040100180401002DE9F04104880646772C07D07E2C37D007
:2057E000A4B1002303203380BDE8F081DFF8BC802F4D98F800202F4F00233B602B6012B37A
:205800002D4CE256002A41DB2B6832E0FFF71AFE274D2A4F2C602A4B3A681870002A43D089
:2058200023469846244C04F8038093680021802098472B68013357F823202B60002AF2D1C6
:20584000DBB21A4A1370772333800120BDE8F0811B4B1B788B4216D1154D174CDFF84C803B
:20586000144F3A682B6801323A60E25C02F07F02E25498F80020013393422B60C1DB3B6859
:20588000002BB9D1DFE70120BDE8F0810B4A002052F823200A4B1978FFF7A0FE0028E0D101
:2058A0007E23012033809FE71346CAE7DA2E0020900E00208C0E0020D00700202804002000
:2058C000DB2E002010B40B4B1C7854B100230A4A02E00133A34204D052F8041B8842F8D1AA
:2058E0001C46064A0648135D63F07F03135510BCFFF7A6BEDA2E002028040020D00700206A
:205900002806002000230360704700BF006870470368D3B110B4002400E0134699420ED055
:205920001A681C46002AF8D100230B600368C3B11A461B68002BFBD1116010BC70470A68E3
:205940006CB1226000221A60EEE700230B6003684BB11A461B68002BFBD1116070470260DE
:20596000F0E70160E9E70160704700BF30B405684DB12B46002400E01346994207D01A68F7
:205980001C46002AF8D10D60016030BC70470A683CB1226000221A6005680D60016030BC9D
:2059A00070470260F6E700BF03688BB110B4002400E0134699421A6804D01C46002AF8D1E4
:2059C00010BC70472CB1226000221A6010BC704770470260F8E700BF03682BB100201B6825
:2059E0000130002BFBD170471846704700B10068704700BF10B504464288002140680AF088
:205A00001DFB23886288A0680021BDE8104003FB02F20AF013BB00BF30B44588ADB1002211
:205A2000436802E00132AA420CD019460C780133002CF7D101230B700588806802FB0500BD
:205A400030BC7047002030BC70472846F8E700BF10B4448882685CB18A420DD00023B0F8D9
:205A600000C001E0914208D00133A3426244F9D14FF0FF3010BC704700234268D15C00293D
:205A8000F6D00021D154084610BC704783688B4208D84288008800FB023081422CBF002044
:205AA00001207047002070474188034649B100205B68194413F8012B02B901308B42F9D131
:205AC00070470846704700BF0023013A0160027143718371704700BF8179427990F804C0FA
:205AE000521A12EA0C0F034606D000684A1C02EA0C02405C9A7170474FF0FF30704700BFFA
:205B000010B5044690F84CC023460CF1010C8021064A203084F84CC0FFF748FB044B2246B6
:205B2000BDE8104000201978FFF758BD015B0000DC2E0020F8B50388044633B1B3F5867F1B
:205B400008D182290AD00120F8BD4FF4867323800120F8BD002323800320F8BDFEF7C6FE05
:205B6000BFF35F8F0022114B1E681A60BFF35F8F0F4DFEF7C3FE28680028E6D00D4F03E0A8
:205B800055F8040F0028E0D090F8453026FA03F3DB07F5D5FFF76CFB0028F1D02B683A46B5
:205BA00018460221FFF702FBEAE700BFA00E002040040020D15B00000146034A0348136829
:205BC0000B431360FFF73CBDA00E00203806002070B50446FFF74CFB00B970BD04F120063C
:205BE0003046FFF745FB054694F84500FDF78AFA48B994F8443063B9002DEED13046FFF7F0
:205C00001DFB0D4B11E00128F6D194F84430002BF2D1002DE1D00025234630467E21074A73
:205C200084F84C50FFF7C2FA054B22462846BDE870401978FFF7D2BCDE2E0020015B000082
:205C4000DD2E00202DE9F843FFF7FCFB224B234D1870FFF7F7FB224B224C1870FFF7F2FB48
:205C60000023214A21496A602268AB6008704AB34FF0805801261E4FD8F8B431916C92F871
:205C800045009B6B41F08C0998472368494693F84500FDF7FBF92268D8F8B43192F8450034
:205CA00006FA00F2C7F8E0201B6B98472368A96893F8453054F8042F06FA03F30B43AB6064
:205CC000002AD9D10B480021FFF7C4FBBDE8F843024800F071B900BFDD2E0020940E0020D7
:205CE000DE2E002040040020B95B0000DC2E0020002002403806002070B504880646672C86
:205D00001BD0792C33D05CB300233380032070BD00251E4C1E49236809785A1C22601D4A5A
:205D20002846D554FFF75AFC1B4B2A4685211868FFF754FC30B300232360184C134D06E00B
:205D40000A28E5D00D28E3D02B687E2B15DD2046FFF7C2FE431CF3D167233380012070BD7C
:205D6000FFF770FB0A4B094A18701460E5E7852901D0012070BD054CDDE7064A591C296022
:205D8000D054E4E779233380012070BD240F0020DF2E0020A40E0020740E0020280F00202C
:205DA00008B5054905488022FFF78EFEBDE8084000210348FFF74EBB300F0020280F002059
:205DC0004806002010B1837A012B01D901207047FEF7A4BD10B1837A012B01D901207047C7
:205DE000FEF746BE10B50446FEF78CFD38B10123E178044A8B40C2F8A030002010BD042003
:205E000010BD00BF0020024001460123C978034A8B400020C2F89030704700BF002002405E
:205E200010B584B08DF80F1018B1837A0446012B02D9012004B010BDFEF764FD50B1002392
:205E400001222046CDE900330DF10F01FEF766FE04B010BD032004B010BD00BFB8B170B5F7
:205E6000837A0446012B82B002D9012002B070BD0D461646FEF746FD58B1002332462946A8
:205E80002046CDE90033FEF749FE02B070BD01207047032002B070BDB8B170B5837A0446E9
:205EA000012B82B002D9012002B070BD0E461546FEF728FD58B100223346204611460095EA
:205EC0000192FEF72BFE02B070BD01207047032002B070BDC20709D5134B5A78DAB10122D3
:205EE0001B78124902FA03F3C1F8A030830711D50D4BDA783AB101229B780C4902FA03F3B7
:205F0000C1F8A030704701229B78084902FA03F3C1F89030704701221B78044902FA03F3A3
:205F2000C1F89030E2E700BF4001010000200240C20709D5134B5A78DAB101221B78124949
:205F400002FA03F3C1F89030830711D50D4BDA783AB101229B780C4902FA03F3C1F89030DB
:205F6000704701229B78084902FA03F3C1F8A030704701221B78044902FA03F3C1F8A03033
:205F8000E2E700BF400101000020024038B54FF08055084CD5F8B4312078DB6B9847D5F844
:205FA000B431A078DB6B9847BDE838400320FFF7BFBF00BF4001010001460148FFF7A8BC20
:205FC000B00F002038B505460748FFF79FFC48B10446A068284002D0636803B1984724685B
:205FE000002CF6D138BD00BFB00F00200148FFF789BC00BFB00F002008B50448FFF7FAFC04
:20600000BDE808400248FFF7F5BC00BF64060020580600200148FFF747BD00BF580600205B
:2060200038B50F48FFF7F8FC044680B10D48FFF7F3FC0546206060B100F00EFB034605F169
:206040009C0105F18200A5F8803000F0A5FB204638BD21460248FFF7FBFC2C46F7E700BF46
:206060005806002064060020006800F19C01823000F092BB10B5044607482146FFF706FD75
:2060800000B910BD21680548FFF7E2FC2146BDE810400148FFF7DCBC580600206406002095
:2060A00010B5044609482146FFF7F0FC00B910BD2468B4F88010204600F098FA04F19C016F
:2060C00004F18200BDE8104000F078BB5806002038B503460F4D1048002B18BF1D46FFF76E
:2060E00015FC58B104462846211D00F0D9FB40B92046FFF77BFC04460028F4D14FF0FF305B
:2061000038BD064A064B9068201A801003FB00F038BD00BF980401007415002070060020A9
:20612000ABAAAAAA2DE9F0411648FFF7EFFB804620B30024144F154E154D08E0204607F007
:2061400093FE04464046FFF751FC804698B1B368A8EB03039B1005FB03F3FB5C002BF1D1F3
:2061600008F10401002CE9D140460C46FFF73EFC80460028EBD12046BDE8F081044620465D
:20618000BDE8F081741500206415002070060020ABAAAAAA2DE9F04705460F46214CDFF837
:2061A00088A0DFF88890DFF8888004F1200654F8041FB9B18A68AAB1A5B1D9F80830EB1A44
:2061C0004FEAA30C0C3308FB0CFC0BD04868CB6800FB0C3030B109681AF80C300B41DB07CA
:2061E00000D59047B442E2D1C5B1104B104A9B68EB1A9B1002FB03F300220E490E48CA548C
:2062000029460AF80320FFF7CFFB0FB9BDE8F0872946BDE8F0470548FFF71ABC4FF0FF3371
:20622000EAE700BF401500204C16002070060020ABAAAAAA6415002074150020034638B124
:206240000268072A04D80C4850F82220934210D00A480268072A0AD810B499600649541CE9
:206260001A60046041F82230012010BC704700207047012099607047441500204816002072
:20628000F8B506460846174F174C184D2EB358B1F3687168C01A90FBF1F1481C1BD0B868B5
:2062A00001EB410100EB8100FFF7A0FB88B1BB68C31A9B1004FB03F35A1C0AD07168F06859
:2062C00001FB030028B1EB5C32681341DB07DDD5F8BD0020F8BD0020E6E73046FFF786FBB9
:2062E0003046F8BD70060020ABAAAAAA4C16002010B504461048FFF709FBB8B10F4B99688D
:20630000411A94B111F10C0F0FD00D4B891001FB03F36068E16800FB031038B1094922681A
:20632000CB5C1341DB0701D510BD002001462046BDE81040FFF7A4BF741500207006002003
:20634000ABAAAAAA4C1600202DE9F041002844D00D46424B0446002908BF1D462846FFF7AE
:20636000B7FE431C2AD06268E36802FB00332BB33B4B22681B5C1341DF071FD500272846A2
:20638000FFF7A6FE461C2CD06268E668002100FB0266304609F052FEFEB1E3686268F31AD9
:2063A00093FBF2F35A1C06D001222D492468C85CA2400243CA543046BDE8F0812846FFF7A0
:2063C00087FE0130DAD12748FFF76EFB0028D5DCFFF7A8FE07460028D1D100263046BDE8C1
:2063E000F081DFF880804046FFF716FB0646B0B131461D48FFF78CFAD8F808302946301DFF
:20640000F51A00F049FA15F10C0F21D100210E460846626809F012FE3046BDE8F081002FD6
:20642000DBD03846FFF754FE411C0CD0D8F8086000EB400006EB800600213046FFF7AAFEA3
:20644000002ED5D1C9E731463046FFF7A3FEB2E7064EA81006FB00F096E700BF98040100C5
:206460004C1600207006002074150020ABAAAAAA10B504460846FFF72BFE84B1431C02465A
:206480000DD06068E36800FB023038B1054B21689B5C0B4113F0010F08BF002010BD0020F3
:2064A00010BD00BF4C16002030B319B3C3684268CB1A93FBF2F35A1C1CD010B54FF0010E7D
:2064C0000F4CD0F800C0E25C0EFA0CFC22EA0C02E254C2684368891A91FBF3F14B1C0CD010
:2064E000084C0268635C0EFA02F223EA02036354704610BD002070477047704610BD00BF07
:206500004C16002064150020A8B191B1C2684368891A91FBF3F14B1C0BD0012310B4064C61
:206520000268605C03FA02F202436254184610BC704700207047704764150020B0B199B196
:20654000C2684368891A91FBF3F14B1C0CD0012310B4074C0068625C03FA00F022EA0002B4
:206560006254184610BC704700207047704700BF6415002088B179B1C2684368881A90FB39
:20658000F3F0431C08D0054B00EB4000996811EB800002D0043070470020704770060020BF
:2065A000002138B50B4A0C480C4B0D4D0D4C017011800D481A22198009F040FD20462946E3
:2065C00000F06AF9294604F10800BDE8384000F063B900BFBA2E0020E02E0020B82E0020D8
:2065E000980401005C160020EC1600202DE9F0410C460021114A124B124EDFF84C80134F73
:206600000546117012481A221980318009F016FD3846414600F040F9414607F1080000F01D
:206620003BF9802C28BF802429462246094809F013FC20463480BDE8F08100BFE02E0020A2
:20664000BA2E0020B82E0020980401005C160020EC1600206C160020F8B50E4E0E4D32782B
:206660002B881344802B01DD0020F8BD04460B4F394609F0F1FB0A4A33781188E0180B44CB
:20668000DBB2F9182A8809F0E7FB30782B881844F8BD00BFE02E0020B82E00206C160020CE
:2066A000BA2E002010B5144B144C1B8894F800C0134A63441288DBB213449BB21A18802AB4
:2066C00017DC013B1BB2002B0EDB0E4A591C03EB000E11447244013B11F801ED1BB2B3F132
:2066E000FF3F02F801E9F6D1844484F800C0012010BD002010BD00BFBA2E0020E02E0020DD
:20670000B82E00206C16002008490A8882420ADB10B4074C80B22388121A03440A80012033
:20672000238010BC70470020704700BFB82E0020BA2E0020014B1880704700BFB82E00202F
:20674000044A054B12881B7804481344DBB21844704700BFBA2E0020E02E00206C16002094
:20676000004870476C160020014B1888704700BFB82E0020054B064A18781288054B1044A2
:206780001B88C0B2184480B2704700BFE02E0020BA2E0020B82E002010B50C461A22054903
:2067A00009F05AFB2046BDE810401022024909F053BB00BFEC1600205C16002010B50C4622
:2067C0001A220146044809F047FB2146BDE810401022024809F040BBEC1600205C1600202F
:2067E0000246024B012023F812107047EC160020014B33F810007047EC16002008B5044B61
:206800000D3803EBC00000F047F8012008BD00BF5C160020024B0D3803EBC000704700BF69
:206820005C1600200149024800F03AB8980401006416002070B505460D480E46FFF766F8AC
:2068400068B10446012D0CD01DB963680BB1984730B92046FFF7CAF804460028F2D1002033
:2068600070BDA368002BF4D030469847F0E700BF08170020054B10B51B689847044B5B683E
:206880009847BDE81040034B5B681847FC0101002805010098050100082209F0DDBA00BF71
:2068A000082208B509F0A4FAB0FA80F0400908BD10B50948FEF7A0FC0848FFF719FD48B136
:2068C000064C037A01465B0803722046FFF7D8FC0028F6D110BD00BFD41700207C06002072
:2068E00001460148FFF7C4BD7C06002080B110B50446FBF7EDFE2368C01AB0F5963F05D21C
:20690000207A032894BF0020012010BD002010BD0020704770B50546144689B1022907D087
